:020000040000FA
:100000000C945D000C9485000C9485000C94850084
:100010000C9485000C9485000C9485000C9485004C
:100020000C9485000C9485000C9485000C9485003C
:100030000C9485000C9485000C9485000C9485002C
:100040000C9494060C9485000C9485000C94850007
:100050000C9485000C9485000C9485000C9485000C
:100060000C9485000C94850048656C6C6F003031F1
:10007000323334353637383961626364656600304F
:1000800031323334353637383941424344454600FE
:10009000272553270A003031323334353637383983
:1000A0006162636465660030313233343536373827
:1000B0003941424344454600560711241FBECFEF45
:1000C000D8E0DEBFCDBF11E0A0E0B1E0E6EAFFE09E
:1000D00002C005900D92A231B107D9F721E0A2E14B
:1000E000B1E001C01D92AD31B207E1F710E0CDE5FE
:1000F000D0E004C02197FE010E94C607CC35D1078D
:10010000C9F70E94DE060C94D1070C940000CF932F
:10011000DF93EC01DA019796FA0117A2888126E9AC
:1001200030E0882311F027EA30E06115710569F4A9
:100130008D819E81892B29F0DA01969680E3FA0160
:1001400086A3CD01DF91CF91089590E080E0FB017F
:10015000EF70FF27E20FF31FE491EE9344E07695F2
:1001600067954A95E1F701966115710581F72D8133
:100170003E8182179307C4F42532310514F025E23D
:1001800030E0281B390BFD01A9014A1B5B0B80E302
:10019000BF01640F751F16161706A4F037FF02C0C3
:1001A00030E020E0A21BB30B8A81882351F28881C2
:1001B00081110AC088E7FD0131978083129780E39F
:1001C0008C93BFCF8293E4CF88E5F5CFDC01129604
:1001D000ED91FC911397849131961396FC93EE93D5
:1001E0001297089580E008958091C00085FFFCCFAC
:1001F0006093C6000895682F8BE191E00C94F400A1
:10020000CF92DF92EF92FF920F931F93CF93DF93E2
:100210008C017B01FB016F01CE18DF0881918111F8
:10022000FACFF801C381D481CC19DD0981818823FB
:10023000C9F0CE0CDF1CEC14FD0431F0F701819104
:100240007F010E94FB00F7CF1C161D06CCF4F801BD
:1002500081850E94FB002197F7CFF80181850E94DC
:10026000FB0021971C161D06C4F3CE0CDF1CEC14FA
:10027000FD0431F0F70181917F010E94FB00F7CF6F
:10028000DF91CF911F910F91FF90EF90DF90CF9072
:1002900008952F923F924F925F926F927F928F922A
:1002A0009F92AF92BF92CF92DF92EF92FF920F9305
:1002B0001F93CF93DF93CDB7DEB7E8970FB6F894CF
:1002C000DEBF0FBECDBF8E010F5A1F4F8CE091E0F5
:1002D0009CAB8BAB80E990E09EAB8DABCE01C3961F
:1002E0000E94E600F12CE12C3AE0432E512C612CC7
:1002F000712C40E3D42E50E3C52E6AE0262E312C1B
:10030000882309F4F7C429E0E216F104B8F4F701F0
:10031000E457FE4F0C94C60799019C01A301BB0151
:100320000004040436065806200628E0E22EF12CCC
:10033000E7CF853209F4D2C40E94FB00CE01C396F8
:100340000E94E600DDCF853229F40E94FB00F12CEB
:10035000E12CF4CF19A61AA61BA61DA61CA6AFEF6A
:10036000BFEFBFA7AEA719AA18AA90E29AAB93E075
:10037000E92EF12CC5CF833219F481E08BA7DECFB3
:10038000803329F49AA59111D9CF8AABD7CF8D327A
:1003900021F481E08AA780E2F8CF803261F488A955
:1003A00099A9892B21F481E090E099AB88AB24E0F6
:1003B000E22EF12CC3CF8B3229F482E090E099AB8E
:1003C00088ABBCCF8A3299F498012E5F3F4FF80179
:1003D000808191819DA78CA797FF07C041E04AA724
:1003E0009195819591099DA78CA78901A7CF9FEC35
:1003F000980F993008F499CF8E3209F473C48C3673
:1004000009F474C4843619F0893609F088C078017B
:10041000F2E0EF0EF11CD8018D919C9118A62EA54B
:100420003FA5009741F4FE01B896232BB1F1CFA26E
:10043000FE01B79632C018161906E4F510E000E088
:10044000FE01B896B1010E947107805D8293CB01D5
:100450000F5F1F4F0097B1F702171307BCF4263246
:10046000310514F026E230E0201B310BDF01C90119
:100470008E1B9F0BAD01480F591F14161506A4F0D3
:1004800037FF02C030E020E0E21BF30B88A999A9F6
:100490008130910559F480E28293BF01CE018996A3
:1004A0000E940001870153CFDE92E4CF0297A9F7A3
:1004B0008BE2F2CF91958195910910E000E0FE0169
:1004C000B8965F01B1E0AB1AB108009751F0B101E5
:1004D0000E945D07805DF5018083CB010F5F1F4F98
:1004E000F0CF02171307BCF42632310514F026E2D0
:1004F00030E0201B310BDF01C9018E1B9F0BAC01CB
:100500004A0F5B1F1416150644F037FF02C030E097
:1005100020E0E21BF30B8DE2BFCFDE92F0CF8537F8
:10052000C9F57801F2E0EF0EF11CD8018D919C9194
:1005300018A62EA53FA5009709F475CF10E000E09E
:10054000FE01B896B1010E945D07805D8293CB01E8
:100550000F5F1F4F0097B1F7021713070CF09DCFE5
:100560002732310514F027E230E0201B310BDF0188
:10057000C9018E1B9F0BAD01480F591F141615069C
:100580003CF037FF02C030E020E0E21BF30B85CFE8
:10059000DE92F1CF823609F051C07801B2E0EB0E65
:1005A000F11CF8012081318118A68EA59FA5211587
:1005B000310541F4892B09F4FDC2CFA2BE01695D6A
:1005C0007F4F6CCF50E040E0BE01685D7F4FE22F6F
:1005D000E170E05DDB01EE93BD01369527954F5F3D
:1005E0005F4F2115310599F748175907D4F4873221
:1005F000910514F087E290E0841B950BFB019C01B0
:10060000261B370BAF01420F531F141615063CF083
:1006100097FF02C090E080E0681B790B3FCFD29239
:10062000F1CF8BA5882309F439CFFB01319782E6FE
:10063000808362507109FB01D08230CF8F3609F080
:1006400048C07801F2E0EF0EF11CD8012D913C91E9
:1006500018A68EA59FA52115310509F4ABCF50E052
:1006600040E0FE01B896A22FA77010E31A0FDF0139
:100670001E93BD01A3E036952795AA95E1F74F5F3C
:100680005F4F21153105B9F448175907B4F4873283
:10069000910514F087E290E0841B950BFB019C010F
:1006A000261B370BAF01420F531F141615060CF013
:1006B000AFCFD292F7CFFB01D6CF8BA5882309F419
:1006C000EDCE61507109DB01DC92BF01625071090E
:1006D000E5CE982F9F7D9835A9F47801B2E0EB0E16
:1006E000F11CF8016081718191E0883509F090E09A
:1006F00099A7AE014F5F5F4FCE0189960E94870098
:10070000BC01CCCE8037D9F47801F2E0EF0EF11CB9
:10071000D8016D917C91AE014F5F5F4FCE018996FC
:100720000E9487005C010EE011E0F80181918F01C9
:10073000882319F00E94FB00F8CFB501AFCE955485
:10074000933010F40E94CC07833741F47801F2E033
:10075000EF0EF11CD8016D917C91A0CE833509F08C
:100760004AC07801B2E0EB0EF11CF801A080B18024
:10077000D5014D018A189B08ED910E2E000CFF0B40
:10078000E491E111F6CF0CA51DA5081919098AA558
:100790008823F1F08A0C9B1C8A149B0451F0D5012C
:1007A000ED915D010E2E000CFF0B84910E94FB0069
:1007B000F3CF101611060CF075CE8AA90E94FB002B
:1007C00001501109F6CF8AA90E94FB0001501109BE
:1007D00010161106C4F38A0C9B1C8A149B0409F49E
:1007E00061CED501ED915D010E2E000CFF0B8491C1
:1007F0000E94FB00F2CF833609F4A4CF80E07BC2D5
:10080000803209F0B4CDFACF843619F0893609F078
:10081000B3C0F8013496F8AFEFABD8016D917D917C
:100820008D919C9118A6EEA4FFA461157105810518
:10083000910589F48E01085D1F4FEF2821F0CFA2AA
:100840008E01095D1F4FB801CE0189960E940001FB
:100850000FA918AD7CCD16161706180619060CF050
:1008600045C0B12CA12C8E01085D1F4FA301920140
:100870000E94A707605DF80162938F01B901CA0168
:10088000FFEFAF1ABF0A611571058105910571F778
:10089000AE14BF04CCF426E2E216F1041CF086E2AA
:1008A000E82EF12CEA18FB08F801C701801B910B18
:1008B0009F01280F391F1216130684F0F7FE02C09D
:1008C000F12CE12C0E191F0988A999A981309105F5
:1008D00039F4F80180E282938F01B5CFD292E8CF4C
:1008E000029709F0B0CFF8018BE2F5CF9095809593
:1008F000709561957F4F8F4F9F4FB12CA12C8E012A
:10090000085D1F4F480131E0831A91086115710598
:100910008105910571F0A30192010E948507605D38
:10092000D4016C93B901CA01BFEFAB1ABB0A8401B1
:10093000E9CFAE14BF04CCF4E6E2EE16F1041CF0ED
:10094000B6E2EB2EF12CEA18FB08F801C701801B78
:10095000910B9C012E0F3F1F121613065CF0F7FE41
:1009600002C0F12CE12C0E191F098DE2D8018E93E3
:100970008D0169CFD292EDCF853709F058C048017B
:10098000B4E08B0E911CF8016081718182819381AA
:1009900018A60EA51FA5611571058105910591F495
:1009A0007E01E8E2EE0EF11C012B29F0CFA27E01C0
:1009B000F7E2EF0EF11CB701CE0189960E9400010B
:1009C0008401C5CCB12CA12C7E0128E2E20EF11CE1
:1009D000A30192010E948507605DD7016E937D019E
:1009E000B901CA01BFEFAB1ABB0A611571058105D8
:1009F000910571F7A016B106F4F60732110514F04F
:100A000007E210E00A191B09F701C8018E199F09B6
:100A10009F01280F391F121613063CF017FF02C062
:100A200010E000E0E01AF10AC6CFD292F1CF823690
:100A300009F04BC07801F4E0EF0EF11CD8018D9065
:100A40009D90AD90BC9018A68EA59FA58114910491
:100A5000A104B10409F4AECD30E020E0BE01685D30
:100A60007F4F482D4170405DFB014293BF01B6941A
:100A7000A794979487942F5F3F4F81149104A1040A
:100A8000B10479F728173907A4F48732910514F0D7
:100A900087E290E0821B930BFB019C01261B370B26
:100AA000AF01420F531F141615060CF0B1CDD292B0
:100AB000F7CF8BA5882309F4F1CC319782E68083A8
:100AC00062507109DB01DC92E9CC8F3609F04EC02F
:100AD0007801B4E0EB0EF11CF80180809180A280D7
:100AE000B38018A68EA59FA581149104A104B1041A
:100AF00009F460CD30E020E0AE01485D5F4FE82DA5
:100B0000E770E05DDA01EE93BD01F3E0B694A794DF
:100B100097948794FA95D1F72F5F3F4F81149104F2
:100B2000A104B104B9F428173907B4F48732910548
:100B300014F087E290E0821B930BFB019C01261BC3
:100B4000370BAF01420F531F141615060CF060CD82
:100B5000D292F7CFAB01D3CF8BA5882309F49ECCDB
:100B600061507109FB01D082BA01B0CD982F9F7DF1
:100B7000983509F043CE7801F4E0EF0EF11CD8016E
:100B80008D909D90AD90BC9091E0883509F090E0FB
:100B900099A718A6AFE7B0E0883511F0AEE6B0E04F
:100BA0002EA53FA581149104A104B10439F4232B8F
:100BB00009F003CDBE01685D7F4F70CC50E040E08E
:100BC000BE01685D7F4FF401EF70FF27EA0FFB1F46
:100BD0009491FB019293BF01E4E0B694A79497949B
:100BE0008794EA95D1F74F5F5F4F81149104A10478
:100BF000B10449F742175307BCF42532310514F00C
:100C000025E230E0241B350BFB01A901461B570BE5
:100C1000DF01A40FB51F1A161B0684F037FF02C0B0
:100C200030E020E0621B730B9BA5992309F436CCBE
:100C3000883509F088E7FB01319741CFD292E8CFA0
:100C400090ED980F9A3008F092CB4CA55DA59AE0F4
:100C5000949F9001959F300D1124082E000C990B44
:100C6000C097820F931F9DA78CA768CB8A3289F407
:100C7000C8010296F8012081318137FD07C03FA7E6
:100C80002EA78C0153E0E52EF12C58CB2FEF3FEF30
:100C9000F6CF90ED980F9A3030F41FA61EA647E0CD
:100CA000E42EF12C2DCBAEEFBFEFBFA7AEA75FCBED
:100CB00090ED980F9A3008F05ACB4EA55FA59AE0B8
:100CC000949F9001959F300D1124082E000C990BD4
:100CD000C097820F931F9FA78EA730CB32E0E32EE1
:100CE000F12C2CCB96E0E92EF12C28CB85E0E82ED8
:100CF000F12C24CB81E0E8960FB6F894DEBF0FBE4E
:100D0000CDBFDF91CF911F910F91FF90EF90DF90BA
:100D1000CF90BF90AF909F908F907F906F905F909B
:100D20004F903F902F9008951F920F920FB60F9201
:100D300011242F933F938F939F93AF93BF938091F1
:100D4000170190911801A0911901B0911A013091E9
:100D5000160123E0230F2D3758F50196A11DB11D73
:100D6000209316018093170190931801A093190105
:100D7000B0931A018091120190911301A091140176
:100D8000B09115010196A11DB11D809312019093A0
:100D90001301A0931401B0931501BF91AF919F91DE
:100DA0008F913F912F910F900FBE0F901F9018952C
:100DB00026E8230F0296A11DB11DD2CF789484B5E9
:100DC000826084BD84B5816084BD85B5826085BD47
:100DD00085B5816085BD80916E00816080936E00D5
:100DE00010928100809181008260809381008091C7
:100DF0008100816080938100809180008160809378
:100E000080008091B10084608093B1008091B00037
:100E100081608093B00080917A00846080937A0032
:100E200080917A00826080937A0080917A0081605C
:100E300080937A0080917A00806880937A00109283
:100E4000C10080E48093C00088E18093C10086E007
:100E50008093C2001092C50080E18093C40088E6B0
:100E600090E09F938F9380E990E09F938F938BE125
:100E700091E09F938F930E944901C8E6D0E00F90C4
:100E80000F900F900F900F900F90E9910E2E000C85
:100E9000FF0B8491811107C0C0E0D0E02097F1F3EF
:100EA0000E940000FBCF0E94FB00EFCF84E091E0A6
:100EB00090931C0180931B010895AA1BBB1B51E159
:100EC00007C0AA1FBB1FA617B70710F0A61BB70BBA
:100ED000881F991F5A95A9F780959095BC01CD015F
:100EE000089597FB072E16F4009407D077FD09D0DC
:100EF0000E945D0707FC05D03EF4909581959F4FB9
:100F00000895709561957F4F0895A1E21A2EAA1B4E
:100F1000BB1BFD010DC0AA1FBB1FEE1FFF1FA217A9
:100F2000B307E407F50720F0A21BB30BE40BF50BA6
:100F3000661F771F881F991F1A9469F7609570952F
:100F4000809590959B01AC01BD01CF010895052EC0
:100F500097FB1EF400940E94BE0757FD07D00E9425
:100F6000850707FC03D04EF40C94BE0750954095BE
:100F7000309521953F4F4F4F5F4F08959095809545
:100F8000709561957F4F8F4F9F4F0895EE0FFF1F14
:100F90000590F491E02D099481E090E0F8940C9490
:100FA000D107F894FFCF00000000F400F200000029
:080FB0000000E60030780000AB
:107800000C94343C0C94513C0C94513C0C94513CE1
:107810000C94513C0C94513C0C94513C0C94513CB4
:107820000C94513C0C94513C0C94513C0C94513CA4
:107830000C94513C0C94513C0C94513C0C94513C94
:107840000C94513C0C94513C0C94513C0C94513C84
:107850000C94513C0C94513C0C94513C0C94513C74
:107860000C94513C0C94513C11241FBECFEFD8E036
:10787000DEBFCDBF11E0A0E0B1E0ECE9FFE702C060
:1078800005900D92A230B107D9F712E0A2E0B1E065
:1078900001C01D92AD30B107E1F70E942D3D0C945F
:1078A000CC3F0C94003C982F959595959595959582
:1078B000905D8F708A307CF0282F295A8091C0000B
:1078C00085FFFCCF9093C6008091C00085FFFCCF60
:1078D0002093C6000895282F205DF0CF982F809127
:1078E000C00085FFFCCF9093C6000895EF92FF92F1
:1078F0000F931F93EE24FF2487018091C00087FD22
:1079000017C00894E11CF11C011D111D81E4E8164B
:1079100082E4F8068FE0080780E0180770F3E09132
:107920000401F091050109958091C00087FFE9CF1E
:107930008091C6001F910F91FF90EF9008950E94D3
:10794000763C982F8091C00085FFFCCF9093C600B5
:1079500091362CF490330CF09053892F089597555D
:10796000892F08951F930E949F3C182F0E949F3CCF
:107970001295107F810F1F9108951F93182F882350
:1079800021F00E94763C1150E1F71F9108951F935A
:10799000182F0E94763C803249F0809103018F5F5E
:1079A000809303018530C1F01F9108958091C0003C
:1079B00085FFFCCF84E18093C6008091C00085FFE5
:1079C000FCCF1093C6008091C00085FFFCCF80E102
:1079D0008093C6001F910895E0910401F091050184
:1079E00009951F9108950E94763C803241F0809164
:1079F00003018F5F80930301853081F008958091AA
:107A0000C00085FFFCCF84E18093C6008091C00058
:107A100085FFFCCF80E18093C6000895E0910401CA
:107A2000F09105010995089540E951E08823A1F0FE
:107A30002D9A28EE33E0FA013197F1F721503040CA
:107A4000D1F72D9828EE33E0FA013197F1F7215064
:107A50003040D1F7815061F708953F924F925F9285
:107A60006F927F928F929F92AF92BF92CF92DF924E
:107A7000EF92FF920F931F93CF93DF93000080E16B
:107A80008093C4001092C50088E18093C10086E015
:107A90008093C2005098589A259A81E00E94143D24
:107AA00024E1F22E9EE1E92E85E9D82E0FE0C02ECA
:107AB00010E1B12EAA24A394B1E49B2EA6E58A2E50
:107AC000F2E57F2EE0E26E2E79E4572E63E5462E36
:107AD00050E5352E0E94763C8033B1F18133B9F107
:107AE000803409F46FC0813409F476C0823409F41B
:107AF00085C0853409F488C0803531F1823521F1A3
:107B0000813511F1853509F485C0863509F48DC0BC
:107B1000843609F496C0843709F403C1853709F423
:107B200072C1863709F466C0809103018F5F80932C
:107B30000301853079F6E0910401F0910501099582
:107B40000E94763C803351F60E94F33CC3CF0E94E2
:107B5000763C803249F78091C00085FFFCCFF092DF
:107B6000C6008091C00085FFFCCF9092C600809136
:107B7000C00085FFFCCF8092C6008091C00085FFC9
:107B8000FCCF7092C6008091C00085FFFCCF609250
:107B9000C6008091C00085FFFCCF5092C600809146
:107BA000C00085FFFCCF4092C6008091C00085FFD9
:107BB000FCCF3092C6008091C00085FFFCCFB09210
:107BC000C60088CF0E94763C863808F4BDCF0E945C
:107BD000763C0E94F33C7ECF0E94763C803809F4CC
:107BE0009CC0813809F40BC1823809F43CC1883942
:107BF00009F48FC080E00E94C73C6CCF84E10E94F2
:107C0000BD3C0E94F33C66CF85E00E94BD3C0E94D3
:107C1000F33C60CF0E94763C809306010E94763C44
:107C2000809307010E94F33C55CF0E94763C80333D
:107C300009F41DC183E00E94BD3C80E00E94C73C66
:107C400049CF0E94763C809309020E94763C809343
:107C5000080280910C028E7F80930C020E94763C79
:107C6000853409F415C18091080290910902892B8D
:107C700089F000E010E00E94763CF801E85FFE4FDA
:107C800080830F5F1F4F80910802909109020817AF
:107C9000190788F30E94763C803209F045CF809125
:107CA0000C0280FF01C16091060170910701660F0F
:107CB000771F7093070160930601A0910802B091AD
:107CC00009021097C9F0E8E0F1E09B01AD014E0F09
:107CD0005F1FF999FECF32BD21BD819180BDFA9A17
:107CE000F99A2F5F3F4FE417F50799F76A0F7B1F4B
:107CF00070930701609306018091C00085FFFCCF5F
:107D0000F092C6008091C00085FFFCCFB092C60003
:107D1000E1CE83E00E94C73CDDCE82E00E94C73CFA
:107D2000D9CE0E94763C809309020E94763C8093D3
:107D300008028091060190910701880F991F909386
:107D40000701809306010E94763C853409F4A6C0A1
:107D500080910C028E7F80930C020E94763C8032D0
:107D600009F0B8CE8091C00085FFFCCFF092C6002C
:107D7000609108027091090261157105B9F140E046
:107D800050E080910C02A82FA170B82FB27011C0E2
:107D9000BB2309F45CC0E0910601F0910701319624
:107DA000F0930701E09306014F5F5F4F46175707B7
:107DB000E8F4AA2369F3F999FECF209106013091E6
:107DC000070132BD21BDF89A90B58091C00085FFB2
:107DD000FCCF9093C6002F5F3F4F30930701209355
:107DE00006014F5F5F4F4617570718F38091C00099
:107DF00085FDE5CE8091C00085FFF8CFE0CE81E023
:107E00000E94C73C67CE0E94763C803209F08CCE3F
:107E10008091C00085FFFCCFF092C6008091C00029
:107E200085FFFCCFE092C6008091C00085FFFCCFAB
:107E3000D092C6008091C00085FFFCCFC092C600E2
:107E40008091C00085FFFCCFB092C60043CEE09188
:107E50000601F091070194918091C00085FFFCCF4D
:107E60009093C6009CCF80E10E94C73C33CE0E9415
:107E7000763C0E94763C182F0E94763C112309F430
:107E800083C0113009F484C08FE00E94C73C22CE29
:107E900080910C02816080930C02E5CE80910C02EF
:107EA000816080930C0259CF809107018823880F4D
:107EB000880B8A2180930B02809106019091070123
:107EC000880F991F90930701809306018091080203
:107ED00080FF09C080910802909109020196909359
:107EE000090280930802F894F999FECF1127E091D6
:107EF0000601F0910701C8E0D1E08091080290915D
:107F00000902103091F40091570001700130D9F34B
:107F100003E000935700E89500915700017001308D
:107F2000D9F301E100935700E89509901990009169
:107F3000570001700130D9F301E000935700E89534
:107F40001395103498F011270091570001700130FB
:107F5000D9F305E000935700E895009157000170B0
:107F60000130D9F301E100935700E895329602976A
:107F700009F0C7CF103011F00296E5CF112480919F
:107F8000C00085FFB9CEBCCE8EE10E94C73CA2CD19
:0E7F900085E90E94C73C9ECDF894FFCF80008B
:00000001FF
