:100000000C942B070C9453070C9453070C94530730
:100010000C9453070C9453070C9453070C945307F8
:100020000C9453070C9453070C9453070C945307E8
:100030000C9453070C9453070C9453070C945307D8
:100040000C94240D0C9453070C9453070C945307F1
:100050000C9453070C9453070C9453070C945307B8
:100060000C9453070C94530725256C7820343239AF
:10007000343936373239354C20202027256C782703
:100080000A0025256C78202D323134373438333648
:1000900034384C202027256C78270A0025256C78D9
:1000A00020323134373438333634374C202020274F
:1000B000256C78270A0025256C78202D31323334C1
:1000C0004C202020202020202027256C78270A0083
:1000D00025256C7820313233344C202020202020FC
:1000E00020202027256C78270A0025256C782030D1
:1000F0004C20202020202020202020202027256C7C
:1001000078270A0025256C6F203432393439363788
:100110003239354C20202027256C6F270A002525F1
:100120006C6F202D323134373438333634384C202C
:100130002027256C6F270A0025256C6F203231346B
:10014000373438333634374C20202027256C6F273E
:100150000A0025256C6F202D313233344C202020AD
:10016000202020202027256C6F270A0025256C6F72
:1001700020313233344C2020202020202020202702
:10018000256C6F270A0025256C6F20304C2020201D
:1001900020202020202020202027256C6F270A00E7
:1001A00025256C6220343239343936373239354CB2
:1001B00020202027256C62270A0025256C62202D2F
:1001C000323134373438333634384C202027256CDC
:1001D00062270A0025256C622032313437343833E7
:1001E0003634374C20202027256C62270A0025252D
:1001F0006C62202D313233344C20202020202020EE
:100200002027256C62270A0025256C6220313233B5
:10021000344C20202020202020202027256C6227FD
:100220000A0025256C6220304C2020202020202030
:10023000202020202027256C62270A0025256C75A8
:1002400020343239343936373239354C20202027A2
:10025000256C75270A0025256C75202D3231343721
:100260003438333634384C202027256C75270A0063
:1002700025256C7520323134373438333634374CD9
:1002800020202027256C75270A0025256C75202D38
:10029000313233344C202020202020202027256C90
:1002A00075270A0025256C7520313233344C202007
:1002B0002020202020202027256C75270A002525B6
:1002C0006C7520304C202020202020202020202051
:1002D0002027256C75270A0025256C64202D3231D6
:1002E00034373438333634384C202027256C642793
:1002F0000A0025256C6420323134373438333634E3
:10030000374C20202027256C64270A0025256C64A3
:10031000202D313233344C20202020202020202753
:10032000256C64270A0025256C6420313233344C57
:1003300020202020202020202027256C64270A0050
:1003400025256C6420304C202020202020202020D7
:1003500020202027256C64270A0025252A64202DCB
:1003600031302C2031323334202020202027252A00
:1003700064270A0025252A642031302C20313233AD
:100380003420202020202027252A64270A00252524
:100390002D3873202248656C6C6F2220202020208D
:1003A0002027252D3873270A002525387320224859
:1003B000656C6C6F22202020202020202725387398
:1003C000270A00252573202248656C6C6F222020A7
:1003D000202020202020272573270A0025252D30C6
:1003E0003858202D3078313261622020202020279B
:1003F000252D303858270A0025252D303858203033
:10040000783132616220202020202027252D3038AD
:1004100058270A002525303858202D307831326190
:10042000622020202020202725303858270A002548
:100430002530385820307831326162202020202049
:1004400020202725303858270A0025252D38582008
:100450002D30783132616220202020202027252D68
:100460003858270A0025252D385820307831326138
:10047000622020202020202027252D3858270A0000
:1004800025253858202D30783132616220202020F7
:1004900020202027253858270A00252538582030C5
:1004A000783132616220202020202020202725382A
:1004B00058270A0025255820363535333620202088
:1004C00020202020202020272558270A00252558D5
:1004D00020363535333520202020202020202020B4
:1004E000272558270A00252558202D33323736393D
:1004F000202020202020202020272558270A0025E2
:100500002558203332373638202020202020202044
:100510002020272558270A00252558202D3332373B
:100520003638202020202020202020272558270A68
:100530000025255820333237363720202020202030
:1005400020202020272558270A00252558202D3037
:100550007831326162202020202020202027255859
:10056000270A00252558203078313261622020206A
:10057000202020202020272558270A002525582024
:100580003020202020202020202020202020202754
:100590002558270A0025252D303878202D30783130
:1005A000326162202020202027252D303878270A2C
:1005B0000025252D303878203078313261622020B6
:1005C0002020202027252D303878270A00252530A7
:1005D0003878202D30783132616220202020202090
:1005E0002725303878270A002525303878203078BC
:1005F00031326162202020202020202725303878C9
:10060000270A0025252D3878202D30783132616277
:1006100020202020202027252D3878270A00252576
:100620002D3878203078313261622020202020203F
:100630002027252D3878270A0025253878202D30C9
:100640007831326162202020202020202725387830
:10065000270A002525387820307831326162202041
:1006600020202020202027253878270A00252578DB
:100670002036353533362020202020202020202011
:10068000272578270A00252578203635353335206B
:10069000202020202020202020272578270A002520
:1006A0002578202D33323736392020202020202075
:1006B0002020272578270A00252578203332373651
:1006C0003820202020202020202020272578270ABD
:1006D00000252578202D3332373638202020202061
:1006E00020202020272578270A002525782033324E
:1006F0003736372020202020202020202027257852
:10070000270A00252578202D30783132616220209B
:10071000202020202020272578270A002525782042
:1007200030783132616220202020202020202027B4
:100730002578270A00252578203020202020202019
:100740002020202020202020272578270A0025256A
:100750002D3031306F202D313233342020202020B5
:100760002027252D3031306F270A0025252D3031E7
:10077000306F2031323334202020202020202725C4
:100780002D3031306F270A0025253031306F202D74
:1007900031323334202020202020202725303130D2
:1007A0006F270A0025253031306F20313233342055
:1007B0002020202020202027253031306F270A00DC
:1007C00025252D31306F202D31323334202020204B
:1007D00020202027252D31306F270A0025252D3197
:1007E000306F203132333420202020202020202759
:1007F000252D31306F270A00252531306F202D310E
:100800003233342020202020202020272531306F33
:10081000270A00252531306F203132333420202043
:10082000202020202020272531306F270A00252571
:100830006F20363535333620202020202020202000
:100840002027256F270A0025256F203635353335BB
:100850002020202020202020202027256F270A006C
:1008600025256F202D3332373639202020202020B7
:1008700020202027256F270A0025256F20333237B7
:1008800036382020202020202020202027256F27D8
:100890000A0025256F202D333237363820202020BE
:1008A000202020202027256F270A0025256F2033B0
:1008B00032373637202020202020202020202725D6
:1008C0006F270A0025256F202D3132333420202058
:1008D0002020202020202027256F270A0025256F93
:1008E00020313233342020202020202020202020BE
:1008F00027256F270A0025256F2030202020202063
:1009000020202020202020202027256F270A0025B6
:10091000252D30313862202D3132333420202020F3
:10092000202027252D30313862270A0025252D303B
:1009300031386220313233342020202020202027FB
:10094000252D30313862270A0025253031386220C4
:100950002D31323334202020202020202725303113
:100960003862270A0025253031386220313233348D
:100970002020202020202020272530313862270AFF
:100980000025252D313862202D31323334202020AE
:100990002020202027252D313862270A0025252DEB
:1009A0003138622031323334202020202020202092
:1009B00027252D313862270A002525313862202D60
:1009C00031323334202020202020202027253138A8
:1009D00062270A0025253138622031323334202045
:1009E000202020202020202725313862270A0025BA
:1009F0002562203635353336202020202020202047
:100A00002020272562270A00252562203635353328
:100A10003520202020202020202020272562270A82
:100A200000252562202D3332373639202020202022
:100A300020202020272562270A0025256220333226
:100A40003736382020202020202020202027256213
:100A5000270A00252562202D333237363820202002
:100A6000202020202020272562270A00252562201B
:100A70003332373637202020202020202020202706
:100A80002562270A00252562202D313233342020AB
:100A90002020202020202020272562270A0025252D
:100AA00062203132333420202020202020202020BA
:100AB00020272562270A00252562203020202020BB
:100AC00020202020202020202020272562270A0007
:100AD00025252D303875202D31323334202020202B
:100AE00020202027252D303875270A0025252D3078
:100AF0003875203132333420202020202020202738
:100B0000252D303875270A002525303875202D31E0
:100B10003233342020202020202020272530387513
:100B2000270A002525303875203132333420202023
:100B30002020202020202725303875270A00252551
:100B40002D3875202D3132333420202020202020D4
:100B50002027252D3875270A0025252D38752031A9
:100B600032333420202020202020202027252D381B
:100B700075270A0025253875202D31323334202081
:100B80002020202020202027253875270A00252511
:100B9000387520313233342020202020202020209E
:100BA0002027253875270A00252575203635353349
:100BB0003620202020202020202020272575270ACD
:100BC000002525752036353533352020202020207E
:100BD00020202020272575270A00252575202D3364
:100BE000323736392020202020202020202725754C
:100BF000270A00252575203332373638202020205B
:100C0000202020202020272575270A002525752053
:100C10002D33323736382020202020202020202756
:100C20002575270A002525752033323736372020D1
:100C30002020202020202020272575270A00252578
:100C400075202D31323334202020202020202020F8
:100C500020272575270A00252575203132333420B9
:100C600020202020202020202020272575270A0052
:100C70002525752030202020202020202020202005
:100C8000202020272575270A0025252D30386420AF
:100C90002D313233342020202020202027252D30D4
:100CA0003864270A0025252D30386420313233344A
:100CB000202020202020202027252D303864270ABE
:100CC000002525303864202D313233342020202077
:100CD000202020202725303864270A002525303899
:100CE000642031323334202020202020202020276F
:100CF00025303864270A0025252D3864202D31320F
:100D00003334202020202020202027252D38642740
:100D10000A0025252D38642031323334202020204C
:100D2000202020202027252D3864270A002525385B
:100D300064202D3132333420202020202020202018
:100D400027253864270A00252538642031323334BA
:100D50002020202020202020202027253864270A3A
:100D600000252564202D33323736392020202020DD
:100D700020202020272564270A00252564203332DF
:100D800037363820202020202020202020272564CE
:100D9000270A00252564202D3332373638202020BD
:100DA000202020202020272564270A0025256420D4
:100DB00033323736372020202020202020202027C3
:100DC0002564270A00252564202D31323334202064
:100DD0002020202020202020272564270A002525E8
:100DE0006420313233342020202020202020202075
:100DF00020272564270A0025256420302020202074
:100E000020202020202020202020272564270A00C1
:100E10003031323334353637383961626364656670
:100E20000030313233343536373839414243444566
:100E300046003031323334353637383961626364D5
:100E40006566003031323334353637383941424304
:100E500044454600CF1411241FBECFEFD8E0DEBFBB
:100E6000CDBF12E0A0E0B1E0E8E9FAE202C00590EF
:100E70000D92A634B107D9F722E0A6E4B2E001C092
:100E80001D92A135B207E1F717E0CBE2D7E004C02D
:100E90002197FE010E943F15CA32D107C9F70E946F
:100EA0006E0D0C944A150C940000CF93DF93EC0167
:100EB000DA019796FA0117A2888122E33EE088239F
:100EC00011F023E43EE06115710569F48D819E8186
:100ED000892B29F0DA01969680E3FA0186A3CD01E9
:100EE000DF91CF91089590E080E0FB01EF70FF2744
:100EF000E20FF31FE491EE9344E0769567954A95EF
:100F0000E1F701966115710581F72D813E81821708
:100F10009307C4F42532310514F025E230E0281B94
:100F2000390BFD01A9014A1B5B0B80E3BF01640F74
:100F3000751F16161706A4F037FF02C030E020E038
:100F4000A21BB30B8A81882351F2888181110AC0C8
:100F500088E7FD0131978083129780E38C93BFCFA0
:100F60008293E4CF88E5F5CFDC011296ED91FC91F8
:100F70001397849131961396FC93EE9312970895EC
:100F800080E008958091C00085FFFCCF6093C6008B
:100F90000895682F8FE492E00C94C207CF92DF92FD
:100FA000EF92FF920F931F93CF93DF938C017B01FE
:100FB000FB016F01CE18DF0881918111FACFF80192
:100FC000C381D481CC19DD0981818823C9F0CE0C7D
:100FD000DF1CEC14FD0431F0F70181917F010E94C8
:100FE000C907F7CF1C161D06CCF4F80181850E94B5
:100FF000C9072197F7CFF80181850E94C90721977A
:101000001C161D06C4F3CE0CDF1CEC14FD0431F0DD
:10101000F70181917F010E94C907F7CFDF91CF913E
:101020001F910F91FF90EF90DF90CF900895CF9395
:10103000DF93EC018991882319F00E94C907FACF48
:101040008AE0DF91CF910C94C9072F923F924F9283
:101050005F926F927F928F929F92AF92BF92CF9248
:10106000DF92EF92FF920F931F93CF93DF93CDB751
:10107000DEB7E8970FB6F894DEBF0FBECDBF8E0186
:101080000F5A1F4F8CE091E09CAB8BAB61968EADFD
:101090009FAD61979EAB8DABCE01C3960E94B40706
:1010A000F12CE12C3AE0432E512C612C712C40E3C1
:1010B000D42E50E3C52E6AE0262E312C882309F465
:1010C000A9C429E0E216F104B8F4F701E659F74F94
:1010D0000C943F1577087A0881089908900A940AB9
:1010E000C60CE80CB00C28E0E22EF12CE7CF8532DC
:1010F00009F484C40E94C907CE01C3960E94B407B4
:10110000DDCF853229F40E94C907F12CE12CF4CF00
:1011100019A61AA61BA61DA61CA6AFEFBFEFBFA758
:10112000AEA719AA18AA90E29AAB93E0E92EF12C87
:10113000C5CF833219F481E08BA7DECF803329F449
:101140009AA59111D9CF8AABD7CF8D3221F481E006
:101150008AA780E2F8CF803261F488A999A9892B07
:1011600021F481E090E099AB88AB24E0E22EF12CF1
:10117000C3CF8B3229F482E090E099AB88ABBCCF2F
:101180008A3299F498012E5F3F4FF8018081918156
:101190009DA78CA797FF07C041E04AA7919581952D
:1011A00091099DA78CA78901A7CF9FEC980F993033
:1011B00008F499CF8E3209F425C48C3609F426C47C
:1011C000843619F0893609F088C07801F2E0EF0E14
:1011D000F11CD8018D919C9118A62EA53FA50097D2
:1011E00041F4FE01B896232BB1F1CFA2FE01B796D0
:1011F00032C018161906E4F510E000E0FE01B896BA
:10120000B1010E94EA14805D8293CB010F5F1F4FF2
:101210000097B1F702171307BCF42632310514F01A
:1012200026E230E0201B310BDF01C9018E1B9F0B32
:10123000AD01480F591F14161506A4F037FF02C060
:1012400030E020E0E21BF30B88A999A981309105D9
:1012500059F480E28293BF01CE0189960E94CE07A5
:10126000870153CFDE92E4CF0297A9F78BE2F2CF4A
:1012700091958195910910E000E0FE01B8965F011B
:10128000B1E0AB1AB108009751F0B1010E94D61439
:10129000805DF5018083CB010F5F1F4FF0CF0217F8
:1012A0001307BCF42632310514F026E230E0201B8F
:1012B000310BDF01C9018E1B9F0BAC014A0F5B1F75
:1012C0001416150644F037FF02C030E020E0E21BA0
:1012D000F30B8DE2BFCFDE92F0CF8537C9F57801F1
:1012E000F2E0EF0EF11CD8018D919C9118A62EA56D
:1012F0003FA5009709F475CF10E000E0FE01B89615
:10130000B1010E94D614805D8293CB010F5F1F4F05
:101310000097B1F7021713070CF09DCF2732310564
:1013200014F027E230E0201B310BDF01C9018E1BD6
:101330009F0BAD01480F591F141615063CF037FFDF
:1013400002C030E020E0E21BF30B85CFDE92F1CF4C
:10135000823609F051C07801B2E0EB0EF11CF801C1
:101360002081318118A68EA59FA52115310541F454
:10137000892B09F4AFC2CFA2BE01695D7F4F6CCF4C
:1013800050E040E0BE01685D7F4FE22FE170E05D1C
:10139000DB01EE93BD01369527954F5F5F4F211519
:1013A000310599F748175907D4F48732910514F09D
:1013B00087E290E0841B950BFB019C01261B370BF9
:1013C000AF01420F531F141615063CF097FF02C0E1
:1013D00090E080E0681B790B3FCFD292F1CF8BA5D4
:1013E000882309F439CFFB01319782E6808362506C
:1013F0007109FB01D08230CF8F3609F048C07801E7
:10140000F2E0EF0EF11CD8012D913C9118A68EA5AB
:101410009FA52115310509F4ABCF50E040E0FE0156
:10142000B896A22FA77010E31A0FDF011E93BD011B
:10143000A3E036952795AA95E1F74F5F5F4F2115F9
:101440003105B9F448175907B4F48732910514F0FF
:1014500087E290E0841B950BFB019C01261B370B58
:10146000AF01420F531F141615060CF0AFCFD292E6
:10147000F7CFFB01D6CF8BA5882309F4EDCE6150C1
:101480007109DB01DC92BF0162507109E5CE982F32
:101490009F7D9835A9F47801B2E0EB0EF11CF801BC
:1014A0006081718191E0883509F090E099A7AE01E3
:1014B0004F5F5F4FCE0189960E945507BC01CCCE8D
:1014C0008037D9F47801F2E0EF0EF11CD8016D916C
:1014D0007C91AE014F5F5F4FCE0189960E94550708
:1014E0005C010EE011E0F80181918F01882319F071
:1014F0000E94C907F8CFB501AFCE9554933010F4D0
:101500000E944515833741F47801F2E0EF0EF11C9B
:10151000D8016D917C91A0CE833691F380E07BC29F
:10152000803209F002CEFACF843619F0893609F0FC
:10153000B3C0F8013496F8AFEFABD8016D917D914F
:101540008D919C9118A6EEA4FFA4611571058105EB
:10155000910589F48E01085D1F4FEF2821F0CFA27D
:101560008E01095D1F4FB801CE0189960E94CE07FA
:101570000FA918ADCACD16161706180619060CF0D5
:1015800045C0B12CA12C8E01085D1F4FA301920113
:101590000E942015605DF80162938F01B901CA01B4
:1015A000FFEFAF1ABF0A611571058105910571F74B
:1015B000AE14BF04CCF426E2E216F1041CF086E27D
:1015C000E82EF12CEA18FB08F801C701801B910BEB
:1015D0009F01280F391F1216130684F0F7FE02C070
:1015E000F12CE12C0E191F0988A999A981309105C8
:1015F00039F4F80180E282938F01B5CFD292E8CF1F
:10160000029709F0B0CFF8018BE2F5CF9095809565
:10161000709561957F4F8F4F9F4FB12CA12C8E01FC
:10162000085D1F4F480131E0831A9108611571056B
:101630008105910571F0A30192010E94FE14605D85
:10164000D4016C93B901CA01BFEFAB1ABB0A840184
:10165000E9CFAE14BF04CCF4E6E2EE16F1041CF0C0
:10166000B6E2EB2EF12CEA18FB08F801C701801B4B
:10167000910B9C012E0F3F1F121613065CF0F7FE14
:1016800002C0F12CE12C0E191F098DE2D8018E93B6
:101690008D0169CFD292EDCF853709F058C048014E
:1016A000B4E08B0E911CF80160817181828193817D
:1016B00018A60EA51FA5611571058105910591F468
:1016C0007E01E8E2EE0EF11C012B29F0CFA27E0193
:1016D000F7E2EF0EF11CB701CE0189960E94CE070A
:1016E000840113CDB12CA12C7E0128E2E20EF11C65
:1016F000A30192010E94FE14605DD7016E937D01EB
:10170000B901CA01BFEFAB1ABB0A611571058105AA
:10171000910571F7A016B106F4F60732110514F021
:1017200007E210E00A191B09F701C8018E199F0989
:101730009F01280F391F121613063CF017FF02C035
:1017400010E000E0E01AF10AC6CFD292F1CF823663
:1017500009F04BC07801F4E0EF0EF11CD8018D9038
:101760009D90AD90BC9018A68EA59FA58114910464
:10177000A104B10409F4FCCD30E020E0BE01685DB5
:101780007F4F482D4170405DFB014293BF01B694ED
:10179000A794979487942F5F3F4F81149104A104DD
:1017A000B10479F728173907A4F48732910514F0AA
:1017B00087E290E0821B930BFB019C01261B370BF9
:1017C000AF01420F531F141615060CF0FFCDD29235
:1017D000F7CF8BA5882309F43FCD319782E680832C
:1017E00062507109DB01DC9237CD8F3609F04EC0B3
:1017F0007801B4E0EB0EF11CF80180809180A280AA
:10180000B38018A68EA59FA581149104A104B104EC
:1018100009F4AECD30E020E0AE01485D5F4FE82D29
:10182000E770E05DDA01EE93BD01F3E0B694A794B2
:1018300097948794FA95D1F72F5F3F4F81149104C5
:10184000A104B104B9F428173907B4F4873291051B
:1018500014F087E290E0821B930BFB019C01261B96
:10186000370BAF01420F531F141615060CF0AECD07
:10187000D292F7CFAB01D3CF8BA5882309F4ECCC60
:1018800061507109FB01D082BA01FECD982F9F7D76
:10189000983509F043CE7801F4E0EF0EF11CD80141
:1018A0008D909D90AD90BC9091E0883509F090E0CE
:1018B00099A718A6A1E2BEE0883511F0A0E1BEE02C
:1018C0002EA53FA581149104A104B10439F4232B62
:1018D00009F051CDBE01685D7F4FBECC50E040E0C5
:1018E000BE01685D7F4FF401EF70FF27EA0FFB1F19
:1018F0009491FB019293BF01E4E0B694A79497946E
:101900008794EA95D1F74F5F5F4F81149104A1044A
:10191000B10449F742175307BCF42532310514F0DE
:1019200025E230E0241B350BFB01A901461B570BB8
:10193000DF01A40FB51F1A161B0684F037FF02C083
:1019400030E020E0621B730B9BA5992309F484CC43
:10195000883509F088E7FB01319741CFD292E8CF73
:1019600090ED980F9A3008F0E0CB4CA55DA59AE079
:10197000949F9001959F300D1124082E000C990B17
:10198000C097820F931F9DA78CA7B6CB8A3289F48C
:10199000C8010296F8012081318137FD07C03FA7B9
:1019A0002EA78C0153E0E52EF12CA6CB2FEF3FEFB5
:1019B000F6CF90ED980F9A3030F41FA61EA647E0A0
:1019C000E42EF12C7BCBAEEFBFEFBFA7AEA7ADCB24
:1019D00090ED980F9A3008F0A8CB4EA55FA59AE03D
:1019E000949F9001959F300D1124082E000C990BA7
:1019F000C097820F931F9FA78EA77ECB32E0E32E66
:101A0000F12C7ACB96E0E92EF12C76CB85E0E82E0E
:101A1000F12C72CB81E0E8960FB6F894DEBF0FBED2
:101A2000CDBFDF91CF911F910F91FF90EF90DF908D
:101A3000CF90BF90AF909F908F907F906F905F906E
:101A40004F903F902F9008951F920F920FB60F92D4
:101A500011242F933F938F939F93AF93BF938091C4
:101A60004B0290914C02A0914D02B0914E023091E8
:101A70004A0223E0230F2D3758F50196A11DB11D11
:101A800020934A0280934B0290934C02A0934D0204
:101A9000B0934E028091460290914702A091480275
:101AA000B09149020196A11DB11D80934602909309
:101AB0004702A0934802B0934902BF91AF919F9112
:101AC0008F913F912F910F900FBE0F901F901895FF
:101AD00026E8230F0296A11DB11DD2CF789484B5BC
:101AE000826084BD84B5816084BD85B5826085BD1A
:101AF00085B5816085BD80916E00816080936E00A8
:101B00001092810080918100826080938100809199
:101B1000810081608093810080918000816080934A
:101B200080008091B10084608093B1008091B0000A
:101B300081608093B00080917A00846080937A0005
:101B400080917A00826080937A0080917A0081602F
:101B500080937A0080917A00806880937A00109256
:101B6000C10080E48093C00088E18093C10086E0DA
:101B70008093C2001092C50080E18093C40081E18F
:101B800091E00E9417081F921F9287EF9DE09F939C
:101B90008F93CFE4D2E0DF93CF930E94250884E0B7
:101BA000F82EFF9202ED0F938EED9DE09F938F93A1
:101BB000DF93CF930E9425089BEF992E9F922EE2F0
:101BC000E22EEF9285EC9DE09F938F93DF93CF936E
:101BD0000E9425083FE7732E7F921FEF1F938CEA28
:101BE0009DE09F938F93DF93CF930E9425081F93CF
:101BF0001F9340E8842E8F921F9283E99DE09F936C
:101C00008F93DF93CF930E9425088DB79EB7809660
:101C10000FB6F8949EBF0FBE8DBF1F921F928F927A
:101C20001F928AE79DE09F938F93DF93CF930E944B
:101C300025081F931F937F921F9381E69DE09F933A
:101C40008F93DF93CF930E942508FF920F9387E431
:101C50009DE09F938F93DF93CF930E9425089F92DF
:101C6000EF928DE29DE09F938F93DF93CF930E943D
:101C70002508FF920F9382E19DE09F938F93DF935E
:101C8000CF930E9425088DB79EB782960FB6F89421
:101C90009EBF0FBE8DBF9F92EF9287EF9CE09F93F8
:101CA0008F93DF93CF930E942508FF920F938CEDC3
:101CB0009CE09F938F93DF93CF930E9425089F9280
:101CC000EF9281EC9CE09F938F93DF93CF930E94E0
:101CD0002508FF920F9385EA9CE09F938F93DF93F3
:101CE000CF930E9425089F92EF9289E89CE09F93F2
:101CF0008F93DF93CF930E94250888E291E00E94A2
:101D000017081F921F9280E79CE09F938F93DF93A9
:101D1000CF930E9425088DB79EB784960FB6F8948E
:101D20009EBF0FBE8DBFFF920F9387E59CE09F93F0
:101D30008F93DF93CF930E9425089F92EF928EE3BB
:101D40009CE09F938F93DF93CF930E9425087F920F
:101D50001F9385E29CE09F938F93DF93CF930E9424
:101D600025081F931F938F921F928CE09CE09F93F6
:101D70008F93DF93CF930E9425081F921F928F921B
:101D80001F9283EF9BE09F938F93DF93CF930E94EB
:101D900025088DB79EB782960FB6F8949EBF0FBEEA
:101DA0008DBF1F931F937F921F938AED9BE09F939C
:101DB0008F93DF93CF930E9425081F921F921F934A
:101DC0001F9381EC9BE09F938F93DF93CF930E94AF
:101DD00025081F92442443944F921F921F9288EA31
:101DE0009BE09F938F93DF93CF930E942508FF92F0
:101DF0000F938EE89BE09F938F93DF93CF930E9486
:101E000025089F92EF9284E79BE09F938F93DF9347
:101E1000CF930E9425088DB79EB784960FB6F8948D
:101E20009EBF0FBE8DBFFF920F9389E59BE09F93EE
:101E30008F93DF93CF930E9425089F92EF928EE3BA
:101E40009BE09F938F93DF93CF930E942508FF928F
:101E50000F9383E29BE09F938F93DF93CF930E9436
:101E600025089F92EF9288E09BE09F938F93DF93EA
:101E7000CF930E942508FF920F938CEE9AE09F93D8
:101E80008F93DF93CF930E9425089F92EF9280ED6E
:101E90009AE09F938F93DF93CF930E9425088DB78D
:101EA0009EB784960FB6F8949EBF0FBE8DBF8FE38A
:101EB00091E00E9417081F921F9287EB9AE09F9370
:101EC0008F93DF93CF930E942508FF920F938EE9A3
:101ED0009AE09F938F93DF93CF930E9425089F9260
:101EE000EF9285E89AE09F938F93DF93CF930E94C0
:101EF00025087F921F938CE69AE09F938F93DF9340
:101F0000CF930E9425081F931F938F921F9283E502
:101F10009AE09F938F93DF93CF930E9425088DB70C
:101F20009EB780960FB6F8949EBF0FBE8DBF1F92CE
:101F30001F928F921F928AE39AE09F938F93DF9371
:101F4000CF930E9425081F931F937F921F9381E2D6
:101F50009AE09F938F93DF93CF930E9425081F925F
:101F60001F921F931F9388E09AE09F938F93DF93B4
:101F7000CF930E9425081F924F921F921F928FEEBF
:101F800099E09F938F93DF93CF930E9425088DB79D
:101F90009EB780960FB6F8949EBF0FBE8DBFFF927E
:101FA0000F9384ED99E09F938F93DF93CF930E94DB
:101FB00025089F92EF9289EB99E09F938F93DF938F
:101FC000CF930E942508FF920F938DE999E09F938C
:101FD0008F93DF93CF930E9425089F92EF9281E821
:101FE00099E09F938F93DF93CF930E942508FF92F0
:101FF0000F9385E699E09F938F93DF93CF930E9491
:1020000025089F92EF9289E499E09F938F93DF9345
:10201000CF930E9425088DB79EB784960FB6F8948B
:102020009EBF0FBE8DBFFF920F938CE299E09F93EE
:102030008F93DF93CF930E9425089F92EF928FE0BA
:1020400099E09F938F93DF93CF930E94250886E5B5
:1020500091E00E9417081F921F9286EF98E09F93CD
:102060008F93DF93CF930E942508FF920F938DEDFE
:1020700098E09F938F93DF93CF930E9425089F92C0
:10208000EF9284EC98E09F938F935E01DF93CF9360
:102090000E9425087F921F938BEA98E09F938F936D
:1020A000DF93CF930E9425088DB79EB784960FB615
:1020B000F8949EBF0FBE8DBF1F931F938F921F92E8
:1020C00082E998E09F938F93DF93CF930E94250836
:1020D0001F921F928F921F9289E798E09F938F9390
:1020E000DF93CF930E9425081F931F937F921F9326
:1020F00080E698E09F938F93DF93CF930E9425080B
:102100001F921F921F931F9387E498E09F938F93D2
:10211000DF93CF930E9425088DB79EB780960FB6A8
:10212000F8949EBF0FBE8DBF1F924F921F921F92B9
:102130008EE298E09F938F93DF93CF930E942508C0
:10214000FF920F9383E198E09F938F93DF93CF9358
:102150000E9425089F92EF9288EF97E09F938F93BC
:10216000DF93CF930E942508FF920F938CED97E0A9
:102170009F938F93DF93CF930E9425089F92EF92B6
:1021800080EC97E09F938F93DF93CF930E94250875
:102190008DB79EB780960FB6F8949EBF0FBE8DBFC9
:1021A000FF920F9384EA97E09F938F93DF93CF93EF
:1021B0000E9425089F92EF9288E897E09F938F9363
:1021C000DF93CF930E942508FF920F938BE697E051
:1021D0009F938F93DF93CF930E9425089F92EF9256
:1021E0008EE497E09F938F93DF93CF930E9425080F
:1021F0008DE691E00E9417081F921F9285E397E0F9
:102200009F938F93DF93CF930E94250852E1552E21
:102210005F926BEA662E6F928CE197E09F938F93AB
:10222000DF93CF930E9425088DB79EB784960FB693
:10223000F8949EBF0FBE8DBF7DEEC72ECF92E5E511
:10224000DE2EDF9283E097E09F938F93DF93CF930F
:102250000E9425087F921F938AEE96E09F938F93AA
:10226000DF93CF930E9425081F931F938F921F9295
:1022700081ED96E09F938F93DF93CF930E94250883
:102280001F921F928F921F9288EB96E09F938F93DD
:10229000DF93CF930E9425081F931F937F921F9374
:1022A0008FE996E09F938F93DF93CF930E94250849
:1022B0008DB79EB784960FB6F8949EBF0FBE8DBFA4
:1022C0001F921F921F931F9386E896E09F938F9310
:1022D000DF93CF930E9425081F924F921F921F9267
:1022E0008DE696E09F938F93DF93CF930E9425080E
:1022F0005F926F9283E596E09F938F93DF93CF93E6
:102300000E942508CF92DF9289E396E09F938F93F6
:10231000DF93CF930E9425085F926F928EE196E043
:102320009F938F93DF93CF930E9425088DB79EB71D
:1023300082960FB6F8949EBF0FBE8DBFCF92DF92EC
:1023400083E096E09F938F93DF93CF930E942508BD
:102350005F926F9288EE95E09F938F93DF93CF9378
:102360000E942508CF92DF928DEC95E09F938F938A
:10237000DF93CF930E9425085F926F9281EB95E0E7
:102380009F938F93DF93CF930E942508CF92DF9284
:1023900085E995E09F938F93DF93CF930E94250863
:1023A00084E891E00E9417081F921F928CE795E045
:1023B0009F938F93DF93CF930E9425088DB79EB78D
:1023C00084960FB6F8949EBF0FBE8DBF5F926F923A
:1023D00083E695E09F938F93DF93CF930E94250828
:1023E000CF92DF928AE495E09F938F93DF93CF9310
:1023F0000E9425087F921F9381E395E09F938F931E
:10240000DF93CF930E9425081F931F938F921F92F3
:1024100088E195E09F938F93DF93CF930E942508E7
:102420001F921F928F921F928FEF94E09F938F9332
:10243000DF93CF930E9425088DB79EB782960FB683
:10244000F8949EBF0FBE8DBF1F931F937F921F9363
:1024500086EE94E09F938F93DF93CF930E9425089D
:102460001F921F921F931F938DEC94E09F938F9365
:10247000DF93CF930E9425081F924F921F921F92C5
:1024800084EB94E09F938F93DF93CF930E94250872
:102490005F926F928AE994E09F938F93DF93CF933B
:1024A0000E942508CF92DF9280E894E09F938F935B
:1024B000DF93CF930E9425088DB79EB784960FB601
:1024C000F8949EBF0FBE8DBF5F926F9285E694E039
:1024D0009F938F93DF93CF930E942508CF92DF9233
:1024E0008AE494E09F938F93DF93CF930E94250813
:1024F0005F926F928FE294E09F938F93DF93CF93DD
:102500000E942508CF92DF9284E194E09F938F93FD
:10251000DF93CF930E9425085F926F9288EF93E03C
:102520009F938F93DF93CF930E942508CF92DF92E2
:102530008CED93E09F938F93DF93CF930E942508B8
:102540008DB79EB784960FB6F8949EBF0FBE8DBF11
:102550008BE991E00E941708F2EBCF2EF1E0DF2E1D
:10256000DF92CF9283EC93E09F938F93DF93CF938F
:102570000E942508DF92CF9289EA93E09F938F9380
:10258000DF93CF930E942508DF92CF928EE893E0ED
:102590009F938F93DF93CF930E94250888EB91E060
:1025A0000E941708FF920F931F928AE08F9384E78F
:1025B00093E09F938F93DF93CF930E942508FF9220
:1025C0000F931F9386EF8F938AE593E09F938F93EA
:1025D000BF92CF930E9425088DB79EB782960FB603
:1025E000F8949EBF0FBE8DBF8DEC91E00E9417083E
:1025F0001F921F921F921F9280E493E09F938F93EC
:10260000BF92CF930E9425081F921F92FF920F93B3
:1026100086E293E09F938F93DF93CF930E942508E8
:102620001F931F939F92EF928CE093E09F938F9361
:10263000DF93CF930E9425087F921F931F931F93D0
:1026400082EF92E09F938F93DF93CF930E942508B0
:102650008DB79EB780960FB6F8949EBF0FBE8DBF04
:102660001F931F931F931F938F921F921F921F926E
:1026700088ED92E09F938F93DF93CF930E9425087C
:1026800085EE91E00E9417081F921F921F921F92E1
:102690008EEB92E09F938F93DF93CF930E94250858
:1026A0001F921F92FF920F9384EA92E09F938F9361
:1026B000DF93CF930E9425081F931F939F92EF9261
:1026C0008AE892E09F938F93DF93CF930E9425082F
:1026D0008DB79EB784960FB6F8949EBF0FBE8DBF80
:1026E0007F921F931F931F9380E792E09F938F9396
:1026F000DF93CF930E9425081F931F931F931F936F
:102700008F921F921F921F9286E592E09F938F9364
:10271000DF93CF930E9425081F921F921F921F9252
:102720001F931F931F931F938CE392E09F938F93AC
:10273000DF93CF930E9425088DB79EB780960FB682
:10274000F8949EBF0FBE8DBF8DEF91E00E941708D9
:102750001F921F921F921F9282E292E09F938F938B
:10276000DF93CF930E9425081F921F92FF920F9331
:1027700088E092E09F938F93DF93CF930E94250888
:102780001F931F939F92EF928EEE91E09F938F93F2
:10279000DF93CF930E9425087F921F931F931F936F
:1027A00084ED91E09F938F93DF93CF930E94250850
:1027B0008DB79EB780960FB6F8949EBF0FBE8DBFA3
:1027C0001F931F931F931F938F921F921F921F920D
:1027D0008AEB91E09F938F93DF93CF930E9425081C
:1027E0001F921F921F921F921F931F931F931F935D
:1027F00080EA91E09F938F93DF93CF930E94250807
:1028000085E192E00E9417081F921F921F921F926B
:1028100086E891E09F938F93DF93CF930E942508E2
:102820008DB79EB780960FB6F8949EBF0FBE8DBF32
:102830001F921F92FF920F938CE691E09F938F93CC
:10284000DF93CF930E9425081F931F939F92EF92CF
:1028500082E591E09F938F93DF93CF930E942508A9
:102860007F921F931F931F9388E391E09F938F9311
:10287000DF93CF930E9425081F931F931F931F93ED
:102880008F921F921F921F928EE191E09F938F93E0
:10289000DF93CF930E9425088DB79EB784960FB61D
:1028A000F8949EBF0FBE8DBF1F921F921F921F9262
:1028B0001F931F931F931F9384E091E09F938F9327
:1028C000DF93CF930E9425088DE292E00E941708C3
:1028D0001F921F921F921F928AEE90E09F938F93F8
:1028E000DF93CF930E9425081F921F92FF920F93B0
:1028F00080ED90E09F938F93DF93CF930E94250804
:102900001F931F939F92EF9286EB90E09F938F937C
:10291000DF93CF930E9425088DB79EB784960FB69C
:10292000F8949EBF0FBE8DBF7F921F931F931F937E
:102930008CE990E09F938F93DF93CF930E942508BB
:102940001F931F931F931F938F921F921F921F928B
:1029500082E890E09F938F93DF93CF930E942508A6
:102960001F921F921F921F921F931F931F931F93DB
:1029700088E690E09F938F93DF93CF930E94250882
:102980008DB79EB780960FB6F8949EBF0FBE8DBFD1
:10299000C0E0D0E02097F1F30E940000FBCF84E07C
:1029A00091E09093500280934F020895AA1BBB1BA5
:1029B00051E107C0AA1FBB1FA617B70710F0A61B3F
:1029C000B70B881F991F5A95A9F780959095BC0160
:1029D000CD01089597FB072E16F4009407D077FDDC
:1029E00009D00E94D61407FC05D03EF4909581953D
:1029F0009F4F0895709561957F4F0895A1E21A2E1B
:102A0000AA1BBB1BFD010DC0AA1FBB1FEE1FFF1F92
:102A1000A217B307E407F50720F0A21BB30BE40BE2
:102A2000F50B661F771F881F991F1A9469F7609529
:102A30007095809590959B01AC01BD01CF010895E3
:102A4000052E97FB1EF400940E94371557FD07D002
:102A50000E94FE1407FC03D04EF40C9437155095D9
:102A60004095309521953F4F4F4F5F4F089590957A
:102A70008095709561957F4F8F4F9F4F0895EE0F12
:102A8000FF1F0590F491E02D099481E090E0F89407
:082A90000C944A15F894FFCFE5
:102A980000000000C207C00700000000B40730783B
:102AA800002D2D2D2D2025642073706563696669BE
:102AB8006572202D2D2D2D002D2D2D2D20257520D5
:102AC800737065636966696572202D2D2D2D002D43
:102AD8002D2D2D20256220737065636966696572E6
:102AE800202D2D2D2D002D2D2D2D20256F2073709F
:102AF80065636966696572202D2D2D2D002D2D2D9C
:102B08002D20257820737065636966696572202DAC
:102B18002D2D2D002D2D2D2D20255820737065630A
:102B28006966696572202D2D2D2D002D2D2D2D20E6
:102B3800257320737065636966696572202D2D2D74
:102B48002D0048656C6C6F002D2D2D2D2077696444
:102B58007468206279202A202D2D2D2D002D2D2DF1
:102B68002D20256C64207370656369666965722021
:102B78002D2D2D2D002D2D2D2D20256C75207370BC
:102B880065636966696572202D2D2D2D002D2D2D0B
:102B98002D20256C622073706563696669657220F3
:102BA8002D2D2D2D002D2D2D2D20256C6F20737092
:102BB80065636966696572202D2D2D2D002D2D2DDB
:102BC8002D20256C782073706563696669657220AD
:062BD8002D2D2D2D000043
:00000001FF
